BS00257808268KR906010000000075                   000000                                                                         
BS012053873530112     00001CAS                000000                Jaguar Club of Denmark medlemskab 2017                      
BS0220538735302400000100001000000000006195000000000Charlotte Melgaard                                                           
BS0220538735302400000200001000000000006195000000000Løvkærvej 28                                                                 
BS0220538735302400000900001000000000006195000000000               8471DK                                                        
BS0220538735302400001000001000000000006195                                        000000000011                                  
BS0420538735302800000000001000000000006195000000000311220161000000003000041440                         00000000000000000        
BS0520538735302410000100001000000000006195000000000 Jaguar Club of Denmark co-driver medlemskab                                 
BS0520538735302410000200001000000000006195000000000 fra 1/1 2017 til 31/12 2017                                                 
BS0520538735302410000300001000000000006195000000000                                                                             
BS0520538735302410000400001000000000006195000000000 SWIFT-BIC: DABADKKK                                                         
BS0520538735302410000500001000000000006195000000000 IBAN: DK90 3000 0001 4645 23                                                
BS0520538735302410000600001000000000006195000000000                                                                             
BS0520538735302410000700001000000000006195000000000 Mvh. Jaguar Club of Denmark                                                 
BS0220538735302400000100001000000000006194000000000Morten Sørensen                                                              
BS0220538735302400000200001000000000006194000000000Falhøj 13                                                                    
BS0220538735302400000900001000000000006194000000000               2770DK                                                        
BS0220538735302400001000001000000000006194                                        000000000011                                  
BS0420538735302800000000001000000000006194000000000311220161000000003000041441                         00000000000000000        
BS0520538735302410000100001000000000006194000000000 Jaguar Club of Denmark co-driver medlemskab                                 
BS0520538735302410000200001000000000006194000000000 fra 1/1 2017 til 31/12 2017                                                 
BS0520538735302410000300001000000000006194000000000                                                                             
BS0520538735302410000400001000000000006194000000000 SWIFT-BIC: DABADKKK                                                         
BS0520538735302410000500001000000000006194000000000 IBAN: DK90 3000 0001 4645 23                                                
BS0520538735302410000600001000000000006194000000000                                                                             
BS0520538735302410000700001000000000006194000000000 Mvh. Jaguar Club of Denmark                                                 
BS0220538735302400000100001000000000006193000000000Henry Iversen                                                                
BS0220538735302400000200001000000000006193000000000Gormsgade 26                                                                 
BS0220538735302400000900001000000000006193000000000               7100DK                                                        
BS0220538735302400001000001000000000006193                                        000000000011                                  
BS0420538735302800000000001000000000006193000000000311220161000000003000041442                         00000000000000000        
BS0520538735302410000100001000000000006193000000000 Jaguar Club of Denmark co-driver medlemskab                                 
BS0520538735302410000200001000000000006193000000000 fra 1/1 2017 til 31/12 2017                                                 
BS0520538735302410000300001000000000006193000000000                                                                             
BS0520538735302410000400001000000000006193000000000 SWIFT-BIC: DABADKKK                                                         
BS0520538735302410000500001000000000006193000000000 IBAN: DK90 3000 0001 4645 23                                                
BS0520538735302410000600001000000000006193000000000                                                                             
BS0520538735302410000700001000000000006193000000000 Mvh. Jaguar Club of Denmark                                                 
BS0220538735302400000100001000000000006192000000000David Asmussen                                                               
BS0220538735302400000200001000000000006192000000000Classensgade 17A                                                             
BS0220538735302400000900001000000000006192000000000               2100DK                                                        
BS0220538735302400001000001000000000006192                                        000000000011                                  
BS0420538735302800000000001000000000006192000000000311220161000000003000041443                         00000000000000000        
BS0520538735302410000100001000000000006192000000000 Jaguar Club of Denmark co-driver medlemskab                                 
BS0520538735302410000200001000000000006192000000000 fra 1/1 2017 til 31/12 2017                                                 
BS0520538735302410000300001000000000006192000000000                                                                             
BS0520538735302410000400001000000000006192000000000 SWIFT-BIC: DABADKKK                                                         
BS0520538735302410000500001000000000006192000000000 IBAN: DK90 3000 0001 4645 23                                                
BS0520538735302410000600001000000000006192000000000                                                                             
BS0520538735302410000700001000000000006192000000000 Mvh. Jaguar Club of Denmark                                                 
BS0220538735302400000100001000000000006191000000000Kjeld Finn Hansen                                                            
BS0220538735302400000200001000000000006191000000000Ryttervænget 7                                                               
BS0220538735302400000300001000000000006191000000000Mogenstrup                                                                   
BS0220538735302400000900001000000000006191000000000               4700DK                                                        
BS0220538735302400001000001000000000006191                                        000000000011                                  
BS0420538735302800000000001000000000006191000000000311220161000000003000041444                         00000000000000000        
BS0520538735302410000100001000000000006191000000000 Jaguar Club of Denmark co-driver medlemskab                                 
BS0520538735302410000200001000000000006191000000000 fra 1/1 2017 til 31/12 2017                                                 
BS0520538735302410000300001000000000006191000000000                                                                             
BS0520538735302410000400001000000000006191000000000 SWIFT-BIC: DABADKKK                                                         
BS0520538735302410000500001000000000006191000000000 IBAN: DK90 3000 0001 4645 23                                                
BS0520538735302410000600001000000000006191000000000                                                                             
BS0520538735302410000700001000000000006191000000000 Mvh. Jaguar Club of Denmark                                                 
BS0220538735302400000100001000000000006190000000000Hans Christian Lund                                                          
BS0220538735302400000200001000000000006190000000000Ole Piis vej 1a                                                              
BS0220538735302400000900001000000000006190000000000               3100DK                                                        
BS0220538735302400001000001000000000006190                                        000000000011                                  
BS0420538735302800000000001000000000006190000000000311220161000000003000041445                         00000000000000000        
BS0520538735302410000100001000000000006190000000000 Jaguar Club of Denmark co-driver medlemskab                                 
BS0520538735302410000200001000000000006190000000000 fra 1/1 2017 til 31/12 2017                                                 
BS0520538735302410000300001000000000006190000000000                                                                             
BS0520538735302410000400001000000000006190000000000 SWIFT-BIC: DABADKKK                                                         
BS0520538735302410000500001000000000006190000000000 IBAN: DK90 3000 0001 4645 23                                                
BS0520538735302410000600001000000000006190000000000                                                                             
BS0520538735302410000700001000000000006190000000000 Mvh. Jaguar Club of Denmark                                                 
BS0220538735302400000100001000000000006189000000000Klaus Nyborg                                                                 
BS0220538735302400000200001000000000006189000000000Skovvangen 22                                                                
BS0220538735302400000900001000000000006189000000000               2920DK                                                        
BS0220538735302400001000001000000000006189                                        000000000011                                  
BS0420538735302800000000001000000000006189000000000311220161000000003000041446                         00000000000000000        
BS0520538735302410000100001000000000006189000000000 Jaguar Club of Denmark co-driver medlemskab                                 
BS0520538735302410000200001000000000006189000000000 fra 1/1 2017 til 31/12 2017                                                 
BS0520538735302410000300001000000000006189000000000                                                                             
BS0520538735302410000400001000000000006189000000000 SWIFT-BIC: DABADKKK                                                         
BS0520538735302410000500001000000000006189000000000 IBAN: DK90 3000 0001 4645 23                                                
BS0520538735302410000600001000000000006189000000000                                                                             
BS0520538735302410000700001000000000006189000000000 Mvh. Jaguar Club of Denmark                                                 
BS0220538735302400000100001000000000006188000000000Adam Grandjean                                                               
BS0220538735302400000200001000000000006188000000000Valdemar Jensens Vej 5A                                                      
BS0220538735302400000900001000000000006188000000000               2920DK                                                        
BS0220538735302400001000001000000000006188                                        000000000011                                  
BS0420538735302800000000001000000000006188000000000311220161000000003000041447                         00000000000000000        
BS0520538735302410000100001000000000006188000000000 Jaguar Club of Denmark co-driver medlemskab                                 
BS0520538735302410000200001000000000006188000000000 fra 1/1 2017 til 31/12 2017                                                 
BS0520538735302410000300001000000000006188000000000                                                                             
BS0520538735302410000400001000000000006188000000000 SWIFT-BIC: DABADKKK                                                         
BS0520538735302410000500001000000000006188000000000 IBAN: DK90 3000 0001 4645 23                                                
BS0520538735302410000600001000000000006188000000000                                                                             
BS0520538735302410000700001000000000006188000000000 Mvh. Jaguar Club of Denmark                                                 
BS0220538735302400000100001000000000006187000000000Kurt Hansen                                                                  
BS0220538735302400000200001000000000006187000000000Skovløkken 18                                                                
BS0220538735302400000300001000000000006187000000000Snogebæk                                                                     
BS0220538735302400000900001000000000006187000000000               3730DK                                                        
BS0220538735302400001000001000000000006187                                        000000000011                                  
BS0420538735302800000000001000000000006187000000000311220161000000003000041448                         00000000000000000        
BS0520538735302410000100001000000000006187000000000 Jaguar Club of Denmark co-driver medlemskab                                 
BS0520538735302410000200001000000000006187000000000 fra 1/1 2017 til 31/12 2017                                                 
BS0520538735302410000300001000000000006187000000000                                                                             
BS0520538735302410000400001000000000006187000000000 SWIFT-BIC: DABADKKK                                                         
BS0520538735302410000500001000000000006187000000000 IBAN: DK90 3000 0001 4645 23                                                
BS0520538735302410000600001000000000006187000000000                                                                             
BS0520538735302410000700001000000000006187000000000 Mvh. Jaguar Club of Denmark                                                 
BS0220538735302400000100001000000000006186000000000Mike René Iversen                                                            
BS0220538735302400000200001000000000006186000000000Gormsgade 26                                                                 
BS0220538735302400000900001000000000006186000000000               7100DK                                                        
BS0220538735302400001000001000000000006186                                        000000000011                                  
BS0420538735302800000000001000000000006186000000000311220161000000003000041449                         00000000000000000        
BS0520538735302410000100001000000000006186000000000 Jaguar Club of Denmark co-driver medlemskab                                 
BS0520538735302410000200001000000000006186000000000 fra 1/1 2017 til 31/12 2017                                                 
BS0520538735302410000300001000000000006186000000000                                                                             
BS0520538735302410000400001000000000006186000000000 SWIFT-BIC: DABADKKK                                                         
BS0520538735302410000500001000000000006186000000000 IBAN: DK90 3000 0001 4645 23                                                
BS0520538735302410000600001000000000006186000000000                                                                             
BS0520538735302410000700001000000000006186000000000 Mvh. Jaguar Club of Denmark                                                 
BS0220538735302400000100001000000000006185000000000Ejnar Kristiansen                                                            
BS0220538735302400000200001000000000006185000000000Potoppidansvej 5                                                             
BS0220538735302400000900001000000000006185000000000               7400DK                                                        
BS0220538735302400001000001000000000006185                                        000000000011                                  
BS0420538735302800000000001000000000006185000000000311220161000000003000041450                         00000000000000000        
BS0520538735302410000100001000000000006185000000000 Jaguar Club of Denmark co-driver medlemskab                                 
BS0520538735302410000200001000000000006185000000000 fra 1/1 2017 til 31/12 2017                                                 
BS0520538735302410000300001000000000006185000000000                                                                             
BS0520538735302410000400001000000000006185000000000 SWIFT-BIC: DABADKKK                                                         
BS0520538735302410000500001000000000006185000000000 IBAN: DK90 3000 0001 4645 23                                                
BS0520538735302410000600001000000000006185000000000                                                                             
BS0520538735302410000700001000000000006185000000000 Mvh. Jaguar Club of Denmark                                                 
BS0220538735302400000100001000000000006184000000000Jonathan Hindersson                                                          
BS0220538735302400000200001000000000006184000000000Howitzvej 67a 1.th                                                           
BS0220538735302400000300001000000000006184000000000Howitzvej 67a 1.th                                                           
BS0220538735302400000900001000000000006184000000000               2000DK                                                        
BS0220538735302400001000001000000000006184                                        000000000011                                  
BS0420538735302800000000001000000000006184000000000311220161000000003000041451                         00000000000000000        
BS0520538735302410000100001000000000006184000000000 Jaguar Club of Denmark co-driver medlemskab                                 
BS0520538735302410000200001000000000006184000000000 fra 1/1 2017 til 31/12 2017                                                 
BS0520538735302410000300001000000000006184000000000                                                                             
BS0520538735302410000400001000000000006184000000000 SWIFT-BIC: DABADKKK                                                         
BS0520538735302410000500001000000000006184000000000 IBAN: DK90 3000 0001 4645 23                                                
BS0520538735302410000600001000000000006184000000000                                                                             
BS0520538735302410000700001000000000006184000000000 Mvh. Jaguar Club of Denmark                                                 
BS0220538735302400000100001000000000006183000000000Henrik Andersen                                                              
BS0220538735302400000200001000000000006183000000000Hinbjerg 103                                                                 
BS0220538735302400000300001000000000006183000000000Hinbjerg, 103                                                                
BS0220538735302400000900001000000000006183000000000               2690DK                                                        
BS0220538735302400001000001000000000006183                                        000000000011                                  
BS0420538735302800000000001000000000006183000000000311220161000000003000041452                         00000000000000000        
BS0520538735302410000100001000000000006183000000000 Jaguar Club of Denmark co-driver medlemskab                                 
BS0520538735302410000200001000000000006183000000000 fra 1/1 2017 til 31/12 2017                                                 
BS0520538735302410000300001000000000006183000000000                                                                             
BS0520538735302410000400001000000000006183000000000 SWIFT-BIC: DABADKKK                                                         
BS0520538735302410000500001000000000006183000000000 IBAN: DK90 3000 0001 4645 23                                                
BS0520538735302410000600001000000000006183000000000                                                                             
BS0520538735302410000700001000000000006183000000000 Mvh. Jaguar Club of Denmark                                                 
BS0220538735302400000100001000000000006182000000000Peter Richter                                                                
BS0220538735302400000200001000000000006182000000000Margrethevej 5B, 1.                                                          
BS0220538735302400000900001000000000006182000000000               2900DK                                                        
BS0220538735302400001000001000000000006182                                        000000000011                                  
BS0420538735302800000000001000000000006182000000000311220161000000003000041453                         00000000000000000        
BS0520538735302410000100001000000000006182000000000 Jaguar Club of Denmark co-driver medlemskab                                 
BS0520538735302410000200001000000000006182000000000 fra 1/1 2017 til 31/12 2017                                                 
BS0520538735302410000300001000000000006182000000000                                                                             
BS0520538735302410000400001000000000006182000000000 SWIFT-BIC: DABADKKK                                                         
BS0520538735302410000500001000000000006182000000000 IBAN: DK90 3000 0001 4645 23                                                
BS0520538735302410000600001000000000006182000000000                                                                             
BS0520538735302410000700001000000000006182000000000 Mvh. Jaguar Club of Denmark                                                 
BS0220538735302400000100001000000000006181000000000Hans Christian Larsen                                                        
BS0220538735302400000200001000000000006181000000000Carsten Hauchs Vænge 10                                                      
BS0220538735302400000900001000000000006181000000000               5230DK                                                        
BS0220538735302400001000001000000000006181                                        000000000011                                  
BS0420538735302800000000001000000000006181000000000311220161000000003000041454                         00000000000000000        
BS0520538735302410000100001000000000006181000000000 Jaguar Club of Denmark co-driver medlemskab                                 
BS0520538735302410000200001000000000006181000000000 fra 1/1 2017 til 31/12 2017                                                 
BS0520538735302410000300001000000000006181000000000                                                                             
BS0520538735302410000400001000000000006181000000000 SWIFT-BIC: DABADKKK                                                         
BS0520538735302410000500001000000000006181000000000 IBAN: DK90 3000 0001 4645 23                                                
BS0520538735302410000600001000000000006181000000000                                                                             
BS0520538735302410000700001000000000006181000000000 Mvh. Jaguar Club of Denmark                                                 
BS0220538735302400000100001000000000006180000000000Jens Peter Krabbe Nielsen                                                    
BS0220538735302400000200001000000000006180000000000Havbakken 200                                                                
BS0220538735302400000900001000000000006180000000000               6710DK                                                        
BS0220538735302400001000001000000000006180                                        000000000011                                  
BS0420538735302800000000001000000000006180000000000311220161000000003000041455                         00000000000000000        
BS0520538735302410000100001000000000006180000000000 Jaguar Club of Denmark co-driver medlemskab                                 
BS0520538735302410000200001000000000006180000000000 fra 1/1 2017 til 31/12 2017                                                 
BS0520538735302410000300001000000000006180000000000                                                                             
BS0520538735302410000400001000000000006180000000000 SWIFT-BIC: DABADKKK                                                         
BS0520538735302410000500001000000000006180000000000 IBAN: DK90 3000 0001 4645 23                                                
BS0520538735302410000600001000000000006180000000000                                                                             
BS0520538735302410000700001000000000006180000000000 Mvh. Jaguar Club of Denmark                                                 
BS0220538735302400000100001000000000006179000000000Heine Hvitved Madsen                                                         
BS0220538735302400000200001000000000006179000000000Ballevej 48, Tirstrup                                                        
BS0220538735302400000900001000000000006179000000000               8400DK                                                        
BS0220538735302400001000001000000000006179                                        000000000011                                  
BS0420538735302800000000001000000000006179000000000311220161000000003000041456                         00000000000000000        
BS0520538735302410000100001000000000006179000000000 Jaguar Club of Denmark co-driver medlemskab                                 
BS0520538735302410000200001000000000006179000000000 fra 1/1 2017 til 31/12 2017                                                 
BS0520538735302410000300001000000000006179000000000                                                                             
BS0520538735302410000400001000000000006179000000000 SWIFT-BIC: DABADKKK                                                         
BS0520538735302410000500001000000000006179000000000 IBAN: DK90 3000 0001 4645 23                                                
BS0520538735302410000600001000000000006179000000000                                                                             
BS0520538735302410000700001000000000006179000000000 Mvh. Jaguar Club of Denmark                                                 
BS0220538735302400000100001000000000006178000000000Niels  Riis                                                                  
BS0220538735302400000200001000000000006178000000000Hingevej 9                                                                   
BS0220538735302400000900001000000000006178000000000               8370DK                                                        
BS0220538735302400001000001000000000006178                                        000000000011                                  
BS0420538735302800000000001000000000006178000000000311220161000000003000041457                         00000000000000000        
BS0520538735302410000100001000000000006178000000000 Jaguar Club of Denmark co-driver medlemskab                                 
BS0520538735302410000200001000000000006178000000000 fra 1/1 2017 til 31/12 2017                                                 
BS0520538735302410000300001000000000006178000000000                                                                             
BS0520538735302410000400001000000000006178000000000 SWIFT-BIC: DABADKKK                                                         
BS0520538735302410000500001000000000006178000000000 IBAN: DK90 3000 0001 4645 23                                                
BS0520538735302410000600001000000000006178000000000                                                                             
BS0520538735302410000700001000000000006178000000000 Mvh. Jaguar Club of Denmark                                                 
BS0220538735302400000100001000000000006177000000000Jens Holm                                                                    
BS0220538735302400000200001000000000006177000000000Hadstenvej 209                                                               
BS0220538735302400000900001000000000006177000000000               8471DK                                                        
BS0220538735302400001000001000000000006177                                        000000000011                                  
BS0420538735302800000000001000000000006177000000000311220161000000003000041458                         00000000000000000        
BS0520538735302410000100001000000000006177000000000 Jaguar Club of Denmark co-driver medlemskab                                 
BS0520538735302410000200001000000000006177000000000 fra 1/1 2017 til 31/12 2017                                                 
BS0520538735302410000300001000000000006177000000000                                                                             
BS0520538735302410000400001000000000006177000000000 SWIFT-BIC: DABADKKK                                                         
BS0520538735302410000500001000000000006177000000000 IBAN: DK90 3000 0001 4645 23                                                
BS0520538735302410000600001000000000006177000000000                                                                             
BS0520538735302410000700001000000000006177000000000 Mvh. Jaguar Club of Denmark                                                 
BS0220538735302400000100001000000000006176000000000Bjørn Drejer                                                                 
BS0220538735302400000200001000000000006176000000000Blidkærvej 6                                                                 
BS0220538735302400000900001000000000006176000000000               5592DK                                                        
BS0220538735302400001000001000000000006176                                        000000000011                                  
BS0420538735302800000000001000000000006176000000000311220161000000003000041459                         00000000000000000        
BS0520538735302410000100001000000000006176000000000 Jaguar Club of Denmark co-driver medlemskab                                 
BS0520538735302410000200001000000000006176000000000 fra 1/1 2017 til 31/12 2017                                                 
BS0520538735302410000300001000000000006176000000000                                                                             
BS0520538735302410000400001000000000006176000000000 SWIFT-BIC: DABADKKK                                                         
BS0520538735302410000500001000000000006176000000000 IBAN: DK90 3000 0001 4645 23                                                
BS0520538735302410000600001000000000006176000000000                                                                             
BS0520538735302410000700001000000000006176000000000 Mvh. Jaguar Club of Denmark                                                 
BS0220538735302400000100001000000000006175000000000Tonny Kristensen                                                             
BS0220538735302400000200001000000000006175000000000Anholtvej 9                                                                  
BS0220538735302400000900001000000000006175000000000               9900DK                                                        
BS0220538735302400001000001000000000006175                                        000000000011                                  
BS0420538735302800000000001000000000006175000000000311220161000000003000041460                         00000000000000000        
BS0520538735302410000100001000000000006175000000000 Jaguar Club of Denmark co-driver medlemskab                                 
BS0520538735302410000200001000000000006175000000000 fra 1/1 2017 til 31/12 2017                                                 
BS0520538735302410000300001000000000006175000000000                                                                             
BS0520538735302410000400001000000000006175000000000 SWIFT-BIC: DABADKKK                                                         
BS0520538735302410000500001000000000006175000000000 IBAN: DK90 3000 0001 4645 23                                                
BS0520538735302410000600001000000000006175000000000                                                                             
BS0520538735302410000700001000000000006175000000000 Mvh. Jaguar Club of Denmark                                                 
BS0220538735302400000100001000000000006174000000000Peter Aarup                                                                  
BS0220538735302400000200001000000000006174000000000Oksbølvej 9                                                                  
BS0220538735302400000900001000000000006174000000000               2610DK                                                        
BS0220538735302400001000001000000000006174                                        000000000011                                  
BS0420538735302800000000001000000000006174000000000311220161000000003000041461                         00000000000000000        
BS0520538735302410000100001000000000006174000000000 Jaguar Club of Denmark co-driver medlemskab                                 
BS0520538735302410000200001000000000006174000000000 fra 1/1 2017 til 31/12 2017                                                 
BS0520538735302410000300001000000000006174000000000                                                                             
BS0520538735302410000400001000000000006174000000000 SWIFT-BIC: DABADKKK                                                         
BS0520538735302410000500001000000000006174000000000 IBAN: DK90 3000 0001 4645 23                                                
BS0520538735302410000600001000000000006174000000000                                                                             
BS0520538735302410000700001000000000006174000000000 Mvh. Jaguar Club of Denmark                                                 
BS0220538735302400000100001000000000006173000000000Gert  Elze                                                                   
BS0220538735302400000200001000000000006173000000000Sønderport 60                                                                
BS0220538735302400000900001000000000006173000000000               6200DK                                                        
BS0220538735302400001000001000000000006173                                        000000000011                                  
BS0420538735302800000000001000000000006173000000000311220161000000003000041462                         00000000000000000        
BS0520538735302410000100001000000000006173000000000 Jaguar Club of Denmark co-driver medlemskab                                 
BS0520538735302410000200001000000000006173000000000 fra 1/1 2017 til 31/12 2017                                                 
BS0520538735302410000300001000000000006173000000000                                                                             
BS0520538735302410000400001000000000006173000000000 SWIFT-BIC: DABADKKK                                                         
BS0520538735302410000500001000000000006173000000000 IBAN: DK90 3000 0001 4645 23                                                
BS0520538735302410000600001000000000006173000000000                                                                             
BS0520538735302410000700001000000000006173000000000 Mvh. Jaguar Club of Denmark                                                 
BS0220538735302400000100001000000000006172000000000Jan Lind  Christensen                                                        
BS0220538735302400000200001000000000006172000000000Klodhøjvej 11                                                                
BS0220538735302400000900001000000000006172000000000               7250DK                                                        
BS0220538735302400001000001000000000006172                                        000000000011                                  
BS0420538735302800000000001000000000006172000000000311220161000000003000041463                         00000000000000000        
BS0520538735302410000100001000000000006172000000000 Jaguar Club of Denmark co-driver medlemskab                                 
BS0520538735302410000200001000000000006172000000000 fra 1/1 2017 til 31/12 2017                                                 
BS0520538735302410000300001000000000006172000000000                                                                             
BS0520538735302410000400001000000000006172000000000 SWIFT-BIC: DABADKKK                                                         
BS0520538735302410000500001000000000006172000000000 IBAN: DK90 3000 0001 4645 23                                                
BS0520538735302410000600001000000000006172000000000                                                                             
BS0520538735302410000700001000000000006172000000000 Mvh. Jaguar Club of Denmark                                                 
BS0220538735302400000100001000000000006171000000000Jens Vinther Jensen                                                          
BS0220538735302400000200001000000000006171000000000Bellisvej 2                                                                  
BS0220538735302400000300001000000000006171000000000Syvsten                                                                      
BS0220538735302400000900001000000000006171000000000               9300DK                                                        
BS0220538735302400001000001000000000006171                                        000000000011                                  
BS0420538735302800000000001000000000006171000000000311220161000000003000041464                         00000000000000000        
BS0520538735302410000100001000000000006171000000000 Jaguar Club of Denmark co-driver medlemskab                                 
BS0520538735302410000200001000000000006171000000000 fra 1/1 2017 til 31/12 2017                                                 
BS0520538735302410000300001000000000006171000000000                                                                             
BS0520538735302410000400001000000000006171000000000 SWIFT-BIC: DABADKKK                                                         
BS0520538735302410000500001000000000006171000000000 IBAN: DK90 3000 0001 4645 23                                                
BS0520538735302410000600001000000000006171000000000                                                                             
BS0520538735302410000700001000000000006171000000000 Mvh. Jaguar Club of Denmark                                                 
BS0220538735302400000100001000000000006170000000000Kjeld Lisby                                                                  
BS0220538735302400000200001000000000006170000000000Nørremarksvej 35                                                             
BS0220538735302400000900001000000000006170000000000               9440DK                                                        
BS0220538735302400001000001000000000006170                                        000000000011                                  
BS0420538735302800000000001000000000006170000000000311220161000000003000041465                         00000000000000000        
BS0520538735302410000100001000000000006170000000000 Jaguar Club of Denmark co-driver medlemskab                                 
BS0520538735302410000200001000000000006170000000000 fra 1/1 2017 til 31/12 2017                                                 
BS0520538735302410000300001000000000006170000000000                                                                             
BS0520538735302410000400001000000000006170000000000 SWIFT-BIC: DABADKKK                                                         
BS0520538735302410000500001000000000006170000000000 IBAN: DK90 3000 0001 4645 23                                                
BS0520538735302410000600001000000000006170000000000                                                                             
BS0520538735302410000700001000000000006170000000000 Mvh. Jaguar Club of Denmark                                                 
BS0220538735302400000100001000000000006169000000000Per Laureng                                                                  
BS0220538735302400000200001000000000006169000000000Jens Juels Gade 38                                                           
BS0220538735302400000900001000000000006169000000000               2100DK                                                        
BS0220538735302400001000001000000000006169                                        000000000011                                  
BS0420538735302800000000001000000000006169000000000311220161000000003000041466                         00000000000000000        
BS0520538735302410000100001000000000006169000000000 Jaguar Club of Denmark co-driver medlemskab                                 
BS0520538735302410000200001000000000006169000000000 fra 1/1 2017 til 31/12 2017                                                 
BS0520538735302410000300001000000000006169000000000                                                                             
BS0520538735302410000400001000000000006169000000000 SWIFT-BIC: DABADKKK                                                         
BS0520538735302410000500001000000000006169000000000 IBAN: DK90 3000 0001 4645 23                                                
BS0520538735302410000600001000000000006169000000000                                                                             
BS0520538735302410000700001000000000006169000000000 Mvh. Jaguar Club of Denmark                                                 
BS0220538735302400000100001000000000006168000000000Anders Berggreen                                                             
BS0220538735302400000200001000000000006168000000000Fabrikmestervej 10                                                           
BS0220538735302400000900001000000000006168000000000               1437DK                                                        
BS0220538735302400001000001000000000006168                                        000000000011                                  
BS0420538735302800000000001000000000006168000000000311220161000000003000041467                         00000000000000000        
BS0520538735302410000100001000000000006168000000000 Jaguar Club of Denmark co-driver medlemskab                                 
BS0520538735302410000200001000000000006168000000000 fra 1/1 2017 til 31/12 2017                                                 
BS0520538735302410000300001000000000006168000000000                                                                             
BS0520538735302410000400001000000000006168000000000 SWIFT-BIC: DABADKKK                                                         
BS0520538735302410000500001000000000006168000000000 IBAN: DK90 3000 0001 4645 23                                                
BS0520538735302410000600001000000000006168000000000                                                                             
BS0520538735302410000700001000000000006168000000000 Mvh. Jaguar Club of Denmark                                                 
BS0220538735302400000100001000000000006167000000000Uffe Høeg Johansen                                                           
BS0220538735302400000200001000000000006167000000000Ballebovej 4 8732 Hovedgård                                                  
BS0220538735302400000900001000000000006167000000000               8732DK                                                        
BS0220538735302400001000001000000000006167                                        000000000011                                  
BS0420538735302800000000001000000000006167000000000311220161000000003000041468                         00000000000000000        
BS0520538735302410000100001000000000006167000000000 Jaguar Club of Denmark co-driver medlemskab                                 
BS0520538735302410000200001000000000006167000000000 fra 1/1 2017 til 31/12 2017                                                 
BS0520538735302410000300001000000000006167000000000                                                                             
BS0520538735302410000400001000000000006167000000000 SWIFT-BIC: DABADKKK                                                         
BS0520538735302410000500001000000000006167000000000 IBAN: DK90 3000 0001 4645 23                                                
BS0520538735302410000600001000000000006167000000000                                                                             
BS0520538735302410000700001000000000006167000000000 Mvh. Jaguar Club of Denmark                                                 
BS0220538735302400000100001000000000006166000000000Arne Astrup                                                                  
BS0220538735302400000200001000000000006166000000000Fabritius Alle 4                                                             
BS0220538735302400000900001000000000006166000000000               2930DK                                                        
BS0220538735302400001000001000000000006166                                        000000000011                                  
BS0420538735302800000000001000000000006166000000000311220161000000003000041469                         00000000000000000        
BS0520538735302410000100001000000000006166000000000 Jaguar Club of Denmark co-driver medlemskab                                 
BS0520538735302410000200001000000000006166000000000 fra 1/1 2017 til 31/12 2017                                                 
BS0520538735302410000300001000000000006166000000000                                                                             
BS0520538735302410000400001000000000006166000000000 SWIFT-BIC: DABADKKK                                                         
BS0520538735302410000500001000000000006166000000000 IBAN: DK90 3000 0001 4645 23                                                
BS0520538735302410000600001000000000006166000000000                                                                             
BS0520538735302410000700001000000000006166000000000 Mvh. Jaguar Club of Denmark                                                 
BS0220538735302400000100001000000000006165000000000Christian Skovengaard                                                        
BS0220538735302400000200001000000000006165000000000Ruskær 5, 2.th                                                               
BS0220538735302400000900001000000000006165000000000               2610DK                                                        
BS0220538735302400001000001000000000006165                                        000000000011                                  
BS0420538735302800000000001000000000006165000000000311220161000000003000041470                         00000000000000000        
BS0520538735302410000100001000000000006165000000000 Jaguar Club of Denmark co-driver medlemskab                                 
BS0520538735302410000200001000000000006165000000000 fra 1/1 2017 til 31/12 2017                                                 
BS0520538735302410000300001000000000006165000000000                                                                             
BS0520538735302410000400001000000000006165000000000 SWIFT-BIC: DABADKKK                                                         
BS0520538735302410000500001000000000006165000000000 IBAN: DK90 3000 0001 4645 23                                                
BS0520538735302410000600001000000000006165000000000                                                                             
BS0520538735302410000700001000000000006165000000000 Mvh. Jaguar Club of Denmark                                                 
BS0220538735302400000100001000000000006164000000000Finn Ossian                                                                  
BS0220538735302400000200001000000000006164000000000Christmas Møllersvej 2                                                       
BS0220538735302400000900001000000000006164000000000               9210DK                                                        
BS0220538735302400001000001000000000006164                                        000000000011                                  
BS0420538735302800000000001000000000006164000000000311220161000000003000041471                         00000000000000000        
BS0520538735302410000100001000000000006164000000000 Jaguar Club of Denmark co-driver medlemskab                                 
BS0520538735302410000200001000000000006164000000000 fra 1/1 2017 til 31/12 2017                                                 
BS0520538735302410000300001000000000006164000000000                                                                             
BS0520538735302410000400001000000000006164000000000 SWIFT-BIC: DABADKKK                                                         
BS0520538735302410000500001000000000006164000000000 IBAN: DK90 3000 0001 4645 23                                                
BS0520538735302410000600001000000000006164000000000                                                                             
BS0520538735302410000700001000000000006164000000000 Mvh. Jaguar Club of Denmark                                                 
BS0220538735302400000100001000000000006163000000000Niels Ole Jakobsen                                                           
BS0220538735302400000200001000000000006163000000000Sønderbakken 23                                                              
BS0220538735302400000900001000000000006163000000000               6700DK                                                        
BS0220538735302400001000001000000000006163                                        000000000011                                  
BS0420538735302800000000001000000000006163000000000311220161000000003000041472                         00000000000000000        
BS0520538735302410000100001000000000006163000000000 Jaguar Club of Denmark co-driver medlemskab                                 
BS0520538735302410000200001000000000006163000000000 fra 1/1 2017 til 31/12 2017                                                 
BS0520538735302410000300001000000000006163000000000                                                                             
BS0520538735302410000400001000000000006163000000000 SWIFT-BIC: DABADKKK                                                         
BS0520538735302410000500001000000000006163000000000 IBAN: DK90 3000 0001 4645 23                                                
BS0520538735302410000600001000000000006163000000000                                                                             
BS0520538735302410000700001000000000006163000000000 Mvh. Jaguar Club of Denmark                                                 
BS0220538735302400000100001000000000006162000000000Erik Kolind Nielsen                                                          
BS0220538735302400000200001000000000006162000000000Grønspættevej 8                                                              
BS0220538735302400000900001000000000006162000000000               9440DK                                                        
BS0220538735302400001000001000000000006162                                        000000000011                                  
BS0420538735302800000000001000000000006162000000000311220161000000003000041473                         00000000000000000        
BS0520538735302410000100001000000000006162000000000 Jaguar Club of Denmark co-driver medlemskab                                 
BS0520538735302410000200001000000000006162000000000 fra 1/1 2017 til 31/12 2017                                                 
BS0520538735302410000300001000000000006162000000000                                                                             
BS0520538735302410000400001000000000006162000000000 SWIFT-BIC: DABADKKK                                                         
BS0520538735302410000500001000000000006162000000000 IBAN: DK90 3000 0001 4645 23                                                
BS0520538735302410000600001000000000006162000000000                                                                             
BS0520538735302410000700001000000000006162000000000 Mvh. Jaguar Club of Denmark                                                 
BS0220538735302400000100001000000000006161000000000Frands Illum                                                                 
BS0220538735302400000200001000000000006161000000000Holtevej 13                                                                  
BS0220538735302400000900001000000000006161000000000               8000DK                                                        
BS0220538735302400001000001000000000006161                                        000000000011                                  
BS0420538735302800000000001000000000006161000000000311220161000000003000041474                         00000000000000000        
BS0520538735302410000100001000000000006161000000000 Jaguar Club of Denmark co-driver medlemskab                                 
BS0520538735302410000200001000000000006161000000000 fra 1/1 2017 til 31/12 2017                                                 
BS0520538735302410000300001000000000006161000000000                                                                             
BS0520538735302410000400001000000000006161000000000 SWIFT-BIC: DABADKKK                                                         
BS0520538735302410000500001000000000006161000000000 IBAN: DK90 3000 0001 4645 23                                                
BS0520538735302410000600001000000000006161000000000                                                                             
BS0520538735302410000700001000000000006161000000000 Mvh. Jaguar Club of Denmark                                                 
BS0220538735302400000100001000000000006160000000000Hans Peter  Jørgensen                                                        
BS0220538735302400000200001000000000006160000000000Kirsebærhaven 7                                                              
BS0220538735302400000900001000000000006160000000000               3480DK                                                        
BS0220538735302400001000001000000000006160                                        000000000011                                  
BS0420538735302800000000001000000000006160000000000311220161000000003000041475                         00000000000000000        
BS0520538735302410000100001000000000006160000000000 Jaguar Club of Denmark co-driver medlemskab                                 
BS0520538735302410000200001000000000006160000000000 fra 1/1 2017 til 31/12 2017                                                 
BS0520538735302410000300001000000000006160000000000                                                                             
BS0520538735302410000400001000000000006160000000000 SWIFT-BIC: DABADKKK                                                         
BS0520538735302410000500001000000000006160000000000 IBAN: DK90 3000 0001 4645 23                                                
BS0520538735302410000600001000000000006160000000000                                                                             
BS0520538735302410000700001000000000006160000000000 Mvh. Jaguar Club of Denmark                                                 
BS0220538735302400000100001000000000006159000000000Svend Nielsen                                                                
BS0220538735302400000200001000000000006159000000000Kalvøvej 9                                                                   
BS0220538735302400000900001000000000006159000000000               6230DK                                                        
BS0220538735302400001000001000000000006159                                        000000000011                                  
BS0420538735302800000000001000000000006159000000000311220161000000003000041476                         00000000000000000        
BS0520538735302410000100001000000000006159000000000 Jaguar Club of Denmark co-driver medlemskab                                 
BS0520538735302410000200001000000000006159000000000 fra 1/1 2017 til 31/12 2017                                                 
BS0520538735302410000300001000000000006159000000000                                                                             
BS0520538735302410000400001000000000006159000000000 SWIFT-BIC: DABADKKK                                                         
BS0520538735302410000500001000000000006159000000000 IBAN: DK90 3000 0001 4645 23                                                
BS0520538735302410000600001000000000006159000000000                                                                             
BS0520538735302410000700001000000000006159000000000 Mvh. Jaguar Club of Denmark                                                 
BS0220538735302400000100001000000000006158000000000Flemming Rafn Joint                                                          
BS0220538735302400000200001000000000006158000000000Faurholtvej 75                                                               
BS0220538735302400000900001000000000006158000000000               9900DK                                                        
BS0220538735302400001000001000000000006158                                        000000000011                                  
BS0420538735302800000000001000000000006158000000000311220161000000003000041477                         00000000000000000        
BS0520538735302410000100001000000000006158000000000 Jaguar Club of Denmark co-driver medlemskab                                 
BS0520538735302410000200001000000000006158000000000 fra 1/1 2017 til 31/12 2017                                                 
BS0520538735302410000300001000000000006158000000000                                                                             
BS0520538735302410000400001000000000006158000000000 SWIFT-BIC: DABADKKK                                                         
BS0520538735302410000500001000000000006158000000000 IBAN: DK90 3000 0001 4645 23                                                
BS0520538735302410000600001000000000006158000000000                                                                             
BS0520538735302410000700001000000000006158000000000 Mvh. Jaguar Club of Denmark                                                 
BS0220538735302400000100001000000000006157000000000Nicolaj  Stæhr                                                               
BS0220538735302400000200001000000000006157000000000Rolighedsvej 7A 1 t.h.                                                       
BS0220538735302400000900001000000000006157000000000               9400DK                                                        
BS0220538735302400001000001000000000006157                                        000000000011                                  
BS0420538735302800000000001000000000006157000000000311220161000000003000041478                         00000000000000000        
BS0520538735302410000100001000000000006157000000000 Jaguar Club of Denmark co-driver medlemskab                                 
BS0520538735302410000200001000000000006157000000000 fra 1/1 2017 til 31/12 2017                                                 
BS0520538735302410000300001000000000006157000000000                                                                             
BS0520538735302410000400001000000000006157000000000 SWIFT-BIC: DABADKKK                                                         
BS0520538735302410000500001000000000006157000000000 IBAN: DK90 3000 0001 4645 23                                                
BS0520538735302410000600001000000000006157000000000                                                                             
BS0520538735302410000700001000000000006157000000000 Mvh. Jaguar Club of Denmark                                                 
BS0220538735302400000100001000000000006156000000000Niels Bonne Rasmussen                                                        
BS0220538735302400000200001000000000006156000000000Ravnsnæsvej 230                                                              
BS0220538735302400000900001000000000006156000000000               2970DK                                                        
BS0220538735302400001000001000000000006156                                        000000000011                                  
BS0420538735302800000000001000000000006156000000000311220161000000003000041479                         00000000000000000        
BS0520538735302410000100001000000000006156000000000 Jaguar Club of Denmark co-driver medlemskab                                 
BS0520538735302410000200001000000000006156000000000 fra 1/1 2017 til 31/12 2017                                                 
BS0520538735302410000300001000000000006156000000000                                                                             
BS0520538735302410000400001000000000006156000000000 SWIFT-BIC: DABADKKK                                                         
BS0520538735302410000500001000000000006156000000000 IBAN: DK90 3000 0001 4645 23                                                
BS0520538735302410000600001000000000006156000000000                                                                             
BS0520538735302410000700001000000000006156000000000 Mvh. Jaguar Club of Denmark                                                 
BS0220538735302400000100001000000000006155000000000Rasmus Hintze                                                                
BS0220538735302400000200001000000000006155000000000Mars Allé 36                                                                 
BS0220538735302400000900001000000000006155000000000               2860DK                                                        
BS0220538735302400001000001000000000006155                                        000000000011                                  
BS0420538735302800000000001000000000006155000000000311220161000000003000041480                         00000000000000000        
BS0520538735302410000100001000000000006155000000000 Jaguar Club of Denmark co-driver medlemskab                                 
BS0520538735302410000200001000000000006155000000000 fra 1/1 2017 til 31/12 2017                                                 
BS0520538735302410000300001000000000006155000000000                                                                             
BS0520538735302410000400001000000000006155000000000 SWIFT-BIC: DABADKKK                                                         
BS0520538735302410000500001000000000006155000000000 IBAN: DK90 3000 0001 4645 23                                                
BS0520538735302410000600001000000000006155000000000                                                                             
BS0520538735302410000700001000000000006155000000000 Mvh. Jaguar Club of Denmark                                                 
BS0220538735302400000100001000000000006153000000000Kristian Kjær                                                                
BS0220538735302400000200001000000000006153000000000Nattergalevej 2                                                              
BS0220538735302400000900001000000000006153000000000               2630DK                                                        
BS0220538735302400001000001000000000006153                                        000000000011                                  
BS0420538735302800000000001000000000006153000000000311220161000000003000041481                         00000000000000000        
BS0520538735302410000100001000000000006153000000000 Jaguar Club of Denmark co-driver medlemskab                                 
BS0520538735302410000200001000000000006153000000000 fra 1/1 2017 til 31/12 2017                                                 
BS0520538735302410000300001000000000006153000000000                                                                             
BS0520538735302410000400001000000000006153000000000 SWIFT-BIC: DABADKKK                                                         
BS0520538735302410000500001000000000006153000000000 IBAN: DK90 3000 0001 4645 23                                                
BS0520538735302410000600001000000000006153000000000                                                                             
BS0520538735302410000700001000000000006153000000000 Mvh. Jaguar Club of Denmark                                                 
BS0220538735302400000100001000000000006152000000000Erik Nystrøm                                                                 
BS0220538735302400000200001000000000006152000000000Albjergvej 83                                                                
BS0220538735302400000900001000000000006152000000000               5883DK                                                        
BS0220538735302400001000001000000000006152                                        000000000011                                  
BS0420538735302800000000001000000000006152000000000311220161000000003000041482                         00000000000000000        
BS0520538735302410000100001000000000006152000000000 Jaguar Club of Denmark co-driver medlemskab                                 
BS0520538735302410000200001000000000006152000000000 fra 1/1 2017 til 31/12 2017                                                 
BS0520538735302410000300001000000000006152000000000                                                                             
BS0520538735302410000400001000000000006152000000000 SWIFT-BIC: DABADKKK                                                         
BS0520538735302410000500001000000000006152000000000 IBAN: DK90 3000 0001 4645 23                                                
BS0520538735302410000600001000000000006152000000000                                                                             
BS0520538735302410000700001000000000006152000000000 Mvh. Jaguar Club of Denmark                                                 
BS0220538735302400000100001000000000006151000000000Andreas Nielsen                                                              
BS0220538735302400000200001000000000006151000000000Thøger Larsens Vej 32                                                        
BS0220538735302400000900001000000000006151000000000               7620DK                                                        
BS0220538735302400001000001000000000006151                                        000000000011                                  
BS0420538735302800000000001000000000006151000000000311220161000000003000041483                         00000000000000000        
BS0520538735302410000100001000000000006151000000000 Jaguar Club of Denmark co-driver medlemskab                                 
BS0520538735302410000200001000000000006151000000000 fra 1/1 2017 til 31/12 2017                                                 
BS0520538735302410000300001000000000006151000000000                                                                             
BS0520538735302410000400001000000000006151000000000 SWIFT-BIC: DABADKKK                                                         
BS0520538735302410000500001000000000006151000000000 IBAN: DK90 3000 0001 4645 23                                                
BS0520538735302410000600001000000000006151000000000                                                                             
BS0520538735302410000700001000000000006151000000000 Mvh. Jaguar Club of Denmark                                                 
BS0220538735302400000100001000000000006150000000000Henrik Møller Kastrup                                                        
BS0220538735302400000200001000000000006150000000000Præstegade 24                                                                
BS0220538735302400000900001000000000006150000000000               5300 KertemindeDK                                             
BS0220538735302400001000001000000000006150                                        000000000011                                  
BS0420538735302800000000001000000000006150000000000311220161000000003000041484                         00000000000000000        
BS0520538735302410000100001000000000006150000000000 Jaguar Club of Denmark co-driver medlemskab                                 
BS0520538735302410000200001000000000006150000000000 fra 1/1 2017 til 31/12 2017                                                 
BS0520538735302410000300001000000000006150000000000                                                                             
BS0520538735302410000400001000000000006150000000000 SWIFT-BIC: DABADKKK                                                         
BS0520538735302410000500001000000000006150000000000 IBAN: DK90 3000 0001 4645 23                                                
BS0520538735302410000600001000000000006150000000000                                                                             
BS0520538735302410000700001000000000006150000000000 Mvh. Jaguar Club of Denmark                                                 
BS0220538735302400000100001000000000006149000000000Jan Hansen                                                                   
BS0220538735302400000200001000000000006149000000000Bette Roldvej 19 Rold                                                        
BS0220538735302400000900001000000000006149000000000               9510DK                                                        
BS0220538735302400001000001000000000006149                                        000000000011                                  
BS0420538735302800000000001000000000006149000000000311220161000000003000041485                         00000000000000000        
BS0520538735302410000100001000000000006149000000000 Jaguar Club of Denmark co-driver medlemskab                                 
BS0520538735302410000200001000000000006149000000000 fra 1/1 2017 til 31/12 2017                                                 
BS0520538735302410000300001000000000006149000000000                                                                             
BS0520538735302410000400001000000000006149000000000 SWIFT-BIC: DABADKKK                                                         
BS0520538735302410000500001000000000006149000000000 IBAN: DK90 3000 0001 4645 23                                                
BS0520538735302410000600001000000000006149000000000                                                                             
BS0520538735302410000700001000000000006149000000000 Mvh. Jaguar Club of Denmark                                                 
BS0220538735302400000100001000000000006148000000000Morten Roslyng Johansson                                                     
BS0220538735302400000200001000000000006148000000000Fulbyvej 23                                                                  
BS0220538735302400000900001000000000006148000000000               4180DK                                                        
BS0220538735302400001000001000000000006148                                        000000000011                                  
BS0420538735302800000000001000000000006148000000000311220161000000003000041486                         00000000000000000        
BS0520538735302410000100001000000000006148000000000 Jaguar Club of Denmark co-driver medlemskab                                 
BS0520538735302410000200001000000000006148000000000 fra 1/1 2017 til 31/12 2017                                                 
BS0520538735302410000300001000000000006148000000000                                                                             
BS0520538735302410000400001000000000006148000000000 SWIFT-BIC: DABADKKK                                                         
BS0520538735302410000500001000000000006148000000000 IBAN: DK90 3000 0001 4645 23                                                
BS0520538735302410000600001000000000006148000000000                                                                             
BS0520538735302410000700001000000000006148000000000 Mvh. Jaguar Club of Denmark                                                 
BS0220538735302400000100001000000000006147000000000Peder Larsen                                                                 
BS0220538735302400000200001000000000006147000000000Hejlskovparken 102                                                           
BS0220538735302400000900001000000000006147000000000               6040DK                                                        
BS0220538735302400001000001000000000006147                                        000000000011                                  
BS0420538735302800000000001000000000006147000000000311220161000000003000041487                         00000000000000000        
BS0520538735302410000100001000000000006147000000000 Jaguar Club of Denmark co-driver medlemskab                                 
BS0520538735302410000200001000000000006147000000000 fra 1/1 2017 til 31/12 2017                                                 
BS0520538735302410000300001000000000006147000000000                                                                             
BS0520538735302410000400001000000000006147000000000 SWIFT-BIC: DABADKKK                                                         
BS0520538735302410000500001000000000006147000000000 IBAN: DK90 3000 0001 4645 23                                                
BS0520538735302410000600001000000000006147000000000                                                                             
BS0520538735302410000700001000000000006147000000000 Mvh. Jaguar Club of Denmark                                                 
BS0220538735302400000100001000000000006146000000000Ebbe Juul                                                                    
BS0220538735302400000200001000000000006146000000000Mesing Hedevej 8                                                             
BS0220538735302400000900001000000000006146000000000               8660DK                                                        
BS0220538735302400001000001000000000006146                                        000000000011                                  
BS0420538735302800000000001000000000006146000000000311220161000000003000041488                         00000000000000000        
BS0520538735302410000100001000000000006146000000000 Jaguar Club of Denmark co-driver medlemskab                                 
BS0520538735302410000200001000000000006146000000000 fra 1/1 2017 til 31/12 2017                                                 
BS0520538735302410000300001000000000006146000000000                                                                             
BS0520538735302410000400001000000000006146000000000 SWIFT-BIC: DABADKKK                                                         
BS0520538735302410000500001000000000006146000000000 IBAN: DK90 3000 0001 4645 23                                                
BS0520538735302410000600001000000000006146000000000                                                                             
BS0520538735302410000700001000000000006146000000000 Mvh. Jaguar Club of Denmark                                                 
BS0220538735302400000100001000000000006145000000000Søren Jelstrup                                                               
BS0220538735302400000200001000000000006145000000000 Solrød byvej  40 C                                                          
BS0220538735302400000900001000000000006145000000000               2680DK                                                        
BS0220538735302400001000001000000000006145                                        000000000011                                  
BS0420538735302800000000001000000000006145000000000311220161000000003000041489                         00000000000000000        
BS0520538735302410000100001000000000006145000000000 Jaguar Club of Denmark co-driver medlemskab                                 
BS0520538735302410000200001000000000006145000000000 fra 1/1 2017 til 31/12 2017                                                 
BS0520538735302410000300001000000000006145000000000                                                                             
BS0520538735302410000400001000000000006145000000000 SWIFT-BIC: DABADKKK                                                         
BS0520538735302410000500001000000000006145000000000 IBAN: DK90 3000 0001 4645 23                                                
BS0520538735302410000600001000000000006145000000000                                                                             
BS0520538735302410000700001000000000006145000000000 Mvh. Jaguar Club of Denmark                                                 
BS0220538735302400000100001000000000006144000000000Niels Munk Clausen                                                           
BS0220538735302400000200001000000000006144000000000Dalagervej 11                                                                
BS0220538735302400000900001000000000006144000000000               8700DK                                                        
BS0220538735302400001000001000000000006144                                        000000000011                                  
BS0420538735302800000000001000000000006144000000000311220161000000003000041490                         00000000000000000        
BS0520538735302410000100001000000000006144000000000 Jaguar Club of Denmark co-driver medlemskab                                 
BS0520538735302410000200001000000000006144000000000 fra 1/1 2017 til 31/12 2017                                                 
BS0520538735302410000300001000000000006144000000000                                                                             
BS0520538735302410000400001000000000006144000000000 SWIFT-BIC: DABADKKK                                                         
BS0520538735302410000500001000000000006144000000000 IBAN: DK90 3000 0001 4645 23                                                
BS0520538735302410000600001000000000006144000000000                                                                             
BS0520538735302410000700001000000000006144000000000 Mvh. Jaguar Club of Denmark                                                 
BS0220538735302400000100001000000000006143000000000Marlene Sylvester-Hvid                                                       
BS0220538735302400000200001000000000006143000000000Stenkrogen 15                                                                
BS0220538735302400000300001000000000006143000000000Stenkrogen 15                                                                
BS0220538735302400000900001000000000006143000000000               2800DK                                                        
BS0220538735302400001000001000000000006143                                        000000000011                                  
BS0420538735302800000000001000000000006143000000000311220161000000003000041491                         00000000000000000        
BS0520538735302410000100001000000000006143000000000 Jaguar Club of Denmark co-driver medlemskab                                 
BS0520538735302410000200001000000000006143000000000 fra 1/1 2017 til 31/12 2017                                                 
BS0520538735302410000300001000000000006143000000000                                                                             
BS0520538735302410000400001000000000006143000000000 SWIFT-BIC: DABADKKK                                                         
BS0520538735302410000500001000000000006143000000000 IBAN: DK90 3000 0001 4645 23                                                
BS0520538735302410000600001000000000006143000000000                                                                             
BS0520538735302410000700001000000000006143000000000 Mvh. Jaguar Club of Denmark                                                 
BS0220538735302400000100001000000000006142000000000Rolf  Sylvester-Hvid                                                         
BS0220538735302400000200001000000000006142000000000Stenkrogen 15                                                                
BS0220538735302400000900001000000000006142000000000               2800DK                                                        
BS0220538735302400001000001000000000006142                                        000000000011                                  
BS0420538735302800000000001000000000006142000000000311220161000000003000041492                         00000000000000000        
BS0520538735302410000100001000000000006142000000000 Jaguar Club of Denmark co-driver medlemskab                                 
BS0520538735302410000200001000000000006142000000000 fra 1/1 2017 til 31/12 2017                                                 
BS0520538735302410000300001000000000006142000000000                                                                             
BS0520538735302410000400001000000000006142000000000 SWIFT-BIC: DABADKKK                                                         
BS0520538735302410000500001000000000006142000000000 IBAN: DK90 3000 0001 4645 23                                                
BS0520538735302410000600001000000000006142000000000                                                                             
BS0520538735302410000700001000000000006142000000000 Mvh. Jaguar Club of Denmark                                                 
BS0220538735302400000100001000000000006141000000000Strøjer Samlingen                                                            
BS0220538735302400000200001000000000006141000000000Bogyden 12                                                                   
BS0220538735302400000900001000000000006141000000000               5610DK                                                        
BS0220538735302400001000001000000000006141                                        000000000011                                  
BS0420538735302800000000001000000000006141000000000311220161000000003000041493                         00000000000000000        
BS0520538735302410000100001000000000006141000000000 Jaguar Club of Denmark co-driver medlemskab                                 
BS0520538735302410000200001000000000006141000000000 fra 1/1 2017 til 31/12 2017                                                 
BS0520538735302410000300001000000000006141000000000                                                                             
BS0520538735302410000400001000000000006141000000000 SWIFT-BIC: DABADKKK                                                         
BS0520538735302410000500001000000000006141000000000 IBAN: DK90 3000 0001 4645 23                                                
BS0520538735302410000600001000000000006141000000000                                                                             
BS0520538735302410000700001000000000006141000000000 Mvh. Jaguar Club of Denmark                                                 
BS0220538735302400000100001000000000006140000000000Ove Nørregaard-Pedersen                                                      
BS0220538735302400000200001000000000006140000000000Rostrupvej 79                                                                
BS0220538735302400000900001000000000006140000000000               5471DK                                                        
BS0220538735302400001000001000000000006140                                        000000000011                                  
BS0420538735302800000000001000000000006140000000000311220161000000003000041494                         00000000000000000        
BS0520538735302410000100001000000000006140000000000 Jaguar Club of Denmark co-driver medlemskab                                 
BS0520538735302410000200001000000000006140000000000 fra 1/1 2017 til 31/12 2017                                                 
BS0520538735302410000300001000000000006140000000000                                                                             
BS0520538735302410000400001000000000006140000000000 SWIFT-BIC: DABADKKK                                                         
BS0520538735302410000500001000000000006140000000000 IBAN: DK90 3000 0001 4645 23                                                
BS0520538735302410000600001000000000006140000000000                                                                             
BS0520538735302410000700001000000000006140000000000 Mvh. Jaguar Club of Denmark                                                 
BS0220538735302400000100001000000000006139000000000Lars Haarup                                                                  
BS0220538735302400000200001000000000006139000000000Vesterparken 3                                                               
BS0220538735302400000900001000000000006139000000000               8600DK                                                        
BS0220538735302400001000001000000000006139                                        000000000011                                  
BS0420538735302800000000001000000000006139000000000311220161000000003000041495                         00000000000000000        
BS0520538735302410000100001000000000006139000000000 Jaguar Club of Denmark co-driver medlemskab                                 
BS0520538735302410000200001000000000006139000000000 fra 1/1 2017 til 31/12 2017                                                 
BS0520538735302410000300001000000000006139000000000                                                                             
BS0520538735302410000400001000000000006139000000000 SWIFT-BIC: DABADKKK                                                         
BS0520538735302410000500001000000000006139000000000 IBAN: DK90 3000 0001 4645 23                                                
BS0520538735302410000600001000000000006139000000000                                                                             
BS0520538735302410000700001000000000006139000000000 Mvh. Jaguar Club of Denmark                                                 
BS0220538735302400000100001000000000006138000000000Helge Madsen                                                                 
BS0220538735302400000200001000000000006138000000000Møllebakken 6                                                                
BS0220538735302400000900001000000000006138000000000               5300DK                                                        
BS0220538735302400001000001000000000006138                                        000000000011                                  
BS0420538735302800000000001000000000006138000000000311220161000000003000041496                         00000000000000000        
BS0520538735302410000100001000000000006138000000000 Jaguar Club of Denmark co-driver medlemskab                                 
BS0520538735302410000200001000000000006138000000000 fra 1/1 2017 til 31/12 2017                                                 
BS0520538735302410000300001000000000006138000000000                                                                             
BS0520538735302410000400001000000000006138000000000 SWIFT-BIC: DABADKKK                                                         
BS0520538735302410000500001000000000006138000000000 IBAN: DK90 3000 0001 4645 23                                                
BS0520538735302410000600001000000000006138000000000                                                                             
BS0520538735302410000700001000000000006138000000000 Mvh. Jaguar Club of Denmark                                                 
BS0220538735302400000100001000000000006137000000000Jan Engberg                                                                  
BS0220538735302400000200001000000000006137000000000Præstevænget 1                                                               
BS0220538735302400000900001000000000006137000000000               4872DK                                                        
BS0220538735302400001000001000000000006137                                        000000000011                                  
BS0420538735302800000000001000000000006137000000000311220161000000003000041497                         00000000000000000        
BS0520538735302410000100001000000000006137000000000 Jaguar Club of Denmark co-driver medlemskab                                 
BS0520538735302410000200001000000000006137000000000 fra 1/1 2017 til 31/12 2017                                                 
BS0520538735302410000300001000000000006137000000000                                                                             
BS0520538735302410000400001000000000006137000000000 SWIFT-BIC: DABADKKK                                                         
BS0520538735302410000500001000000000006137000000000 IBAN: DK90 3000 0001 4645 23                                                
BS0520538735302410000600001000000000006137000000000                                                                             
BS0520538735302410000700001000000000006137000000000 Mvh. Jaguar Club of Denmark                                                 
BS0220538735302400000100001000000000006136000000000Jens Jakob Fruensgaard                                                       
BS0220538735302400000200001000000000006136000000000Herninggade 13                                                               
BS0220538735302400000900001000000000006136000000000               9900DK                                                        
BS0220538735302400001000001000000000006136                                        000000000011                                  
BS0420538735302800000000001000000000006136000000000311220161000000003000041498                         00000000000000000        
BS0520538735302410000100001000000000006136000000000 Jaguar Club of Denmark co-driver medlemskab                                 
BS0520538735302410000200001000000000006136000000000 fra 1/1 2017 til 31/12 2017                                                 
BS0520538735302410000300001000000000006136000000000                                                                             
BS0520538735302410000400001000000000006136000000000 SWIFT-BIC: DABADKKK                                                         
BS0520538735302410000500001000000000006136000000000 IBAN: DK90 3000 0001 4645 23                                                
BS0520538735302410000600001000000000006136000000000                                                                             
BS0520538735302410000700001000000000006136000000000 Mvh. Jaguar Club of Denmark                                                 
BS0220538735302400000100001000000000006135000000000Keld Andersen                                                                
BS0220538735302400000200001000000000006135000000000Købmandsvænget 6                                                             
BS0220538735302400000300001000000000006135000000000Gl. Viby                                                                     
BS0220538735302400000900001000000000006135000000000               4130DK                                                        
BS0220538735302400001000001000000000006135                                        000000000011                                  
BS0420538735302800000000001000000000006135000000000311220161000000003000041499                         00000000000000000        
BS0520538735302410000100001000000000006135000000000 Jaguar Club of Denmark co-driver medlemskab                                 
BS0520538735302410000200001000000000006135000000000 fra 1/1 2017 til 31/12 2017                                                 
BS0520538735302410000300001000000000006135000000000                                                                             
BS0520538735302410000400001000000000006135000000000 SWIFT-BIC: DABADKKK                                                         
BS0520538735302410000500001000000000006135000000000 IBAN: DK90 3000 0001 4645 23                                                
BS0520538735302410000600001000000000006135000000000                                                                             
BS0520538735302410000700001000000000006135000000000 Mvh. Jaguar Club of Denmark                                                 
BS0220538735302400000100001000000000006134000000000Michael Aagaard                                                              
BS0220538735302400000200001000000000006134000000000Bangsbovej 30 1. tv                                                          
BS0220538735302400000900001000000000006134000000000               9900DK                                                        
BS0220538735302400001000001000000000006134                                        000000000011                                  
BS0420538735302800000000001000000000006134000000000311220161000000003000041500                         00000000000000000        
BS0520538735302410000100001000000000006134000000000 Jaguar Club of Denmark co-driver medlemskab                                 
BS0520538735302410000200001000000000006134000000000 fra 1/1 2017 til 31/12 2017                                                 
BS0520538735302410000300001000000000006134000000000                                                                             
BS0520538735302410000400001000000000006134000000000 SWIFT-BIC: DABADKKK                                                         
BS0520538735302410000500001000000000006134000000000 IBAN: DK90 3000 0001 4645 23                                                
BS0520538735302410000600001000000000006134000000000                                                                             
BS0520538735302410000700001000000000006134000000000 Mvh. Jaguar Club of Denmark                                                 
BS0220538735302400000100001000000000006133000000000Thomas Bjerre                                                                
BS0220538735302400000200001000000000006133000000000Læssøegade 113                                                               
BS0220538735302400000900001000000000006133000000000               5230DK                                                        
BS0220538735302400001000001000000000006133                                        000000000011                                  
BS0420538735302800000000001000000000006133000000000311220161000000003000041501                         00000000000000000        
BS0520538735302410000100001000000000006133000000000 Jaguar Club of Denmark co-driver medlemskab                                 
BS0520538735302410000200001000000000006133000000000 fra 1/1 2017 til 31/12 2017                                                 
BS0520538735302410000300001000000000006133000000000                                                                             
BS0520538735302410000400001000000000006133000000000 SWIFT-BIC: DABADKKK                                                         
BS0520538735302410000500001000000000006133000000000 IBAN: DK90 3000 0001 4645 23                                                
BS0520538735302410000600001000000000006133000000000                                                                             
BS0520538735302410000700001000000000006133000000000 Mvh. Jaguar Club of Denmark                                                 
BS0220538735302400000100001000000000006132000000000Keld og Jean Pedersen                                                        
BS0220538735302400000200001000000000006132000000000Weidekampsgade 21 st th                                                      
BS0220538735302400000900001000000000006132000000000               2300DK                                                        
BS0220538735302400001000001000000000006132                                        000000000011                                  
BS0420538735302800000000001000000000006132000000000311220161000000003000041502                         00000000000000000        
BS0520538735302410000100001000000000006132000000000 Jaguar Club of Denmark co-driver medlemskab                                 
BS0520538735302410000200001000000000006132000000000 fra 1/1 2017 til 31/12 2017                                                 
BS0520538735302410000300001000000000006132000000000                                                                             
BS0520538735302410000400001000000000006132000000000 SWIFT-BIC: DABADKKK                                                         
BS0520538735302410000500001000000000006132000000000 IBAN: DK90 3000 0001 4645 23                                                
BS0520538735302410000600001000000000006132000000000                                                                             
BS0520538735302410000700001000000000006132000000000 Mvh. Jaguar Club of Denmark                                                 
BS0220538735302400000100001000000000006131000000000Richardt Hansen                                                              
BS0220538735302400000200001000000000006131000000000Tesdorpfsvej 83                                                              
BS0220538735302400000900001000000000006131000000000               2000DK                                                        
BS0220538735302400001000001000000000006131                                        000000000011                                  
BS0420538735302800000000001000000000006131000000000311220161000000003000041503                         00000000000000000        
BS0520538735302410000100001000000000006131000000000 Jaguar Club of Denmark co-driver medlemskab                                 
BS0520538735302410000200001000000000006131000000000 fra 1/1 2017 til 31/12 2017                                                 
BS0520538735302410000300001000000000006131000000000                                                                             
BS0520538735302410000400001000000000006131000000000 SWIFT-BIC: DABADKKK                                                         
BS0520538735302410000500001000000000006131000000000 IBAN: DK90 3000 0001 4645 23                                                
